{
  "address": "0x5284473C2246310D278ce58660210b4890F16f47",
  "abi": [
    {
      "inputs": [
        {
          "internalType": "uint256",
          "name": "rate",
          "type": "uint256"
        }
      ],
      "stateMutability": "nonpayable",
      "type": "constructor"
    },
    {
      "anonymous": false,
      "inputs": [
        {
          "indexed": false,
          "internalType": "address",
          "name": "player",
          "type": "address"
        },
        {
          "indexed": false,
          "internalType": "uint256",
          "name": "value",
          "type": "uint256"
        },
        {
          "indexed": false,
          "internalType": "bool",
          "name": "hasWon",
          "type": "bool"
        }
      ],
      "name": "BetPlaced",
      "type": "event"
    },
    {
      "inputs": [
        {
          "internalType": "address",
          "name": "player",
          "type": "address"
        }
      ],
      "name": "evaluateBetForPlayer",
      "outputs": [
        {
          "internalType": "bool",
          "name": "",
          "type": "bool"
        }
      ],
      "stateMutability": "view",
      "type": "function"
    },
    {
      "inputs": [
        {
          "internalType": "address",
          "name": "player",
          "type": "address"
        }
      ],
      "name": "generateRandom",
      "outputs": [
        {
          "internalType": "uint256",
          "name": "",
          "type": "uint256"
        }
      ],
      "stateMutability": "view",
      "type": "function"
    },
    {
      "inputs": [],
      "name": "placeBet",
      "outputs": [],
      "stateMutability": "payable",
      "type": "function"
    },
    {
      "inputs": [],
      "name": "totalGamesPlayerLost",
      "outputs": [
        {
          "internalType": "uint256",
          "name": "",
          "type": "uint256"
        }
      ],
      "stateMutability": "view",
      "type": "function"
    },
    {
      "inputs": [],
      "name": "totalGamesPlayerWon",
      "outputs": [
        {
          "internalType": "uint256",
          "name": "",
          "type": "uint256"
        }
      ],
      "stateMutability": "view",
      "type": "function"
    },
    {
      "inputs": [],
      "name": "wonRate",
      "outputs": [
        {
          "internalType": "uint256",
          "name": "",
          "type": "uint256"
        }
      ],
      "stateMutability": "view",
      "type": "function"
    },
    {
      "stateMutability": "payable",
      "type": "receive"
    }
  ],
  "transactionHash": "0x74e80263442494b85d52dff943a38eeb83e39c197447587da426a952118e1796",
  "args": [
    50
  ],
  "numDeployments": 1,
  "solcInputHash": "7108ed342a95bd502b7b154f9897307e",
  "bytecode": "0x608060405260008055600060015534801561001957600080fd5b506040516104e03803806104e083398101604081905261003891610040565b600255610059565b60006020828403121561005257600080fd5b5051919050565b610478806100686000396000f3fe6080604052600436106100595760003560e01c80631ec71426146100655780634046c3001461009857806368f80a27146100ae5780639f9db055146100c4578063a01ff533146100da578063f90f45601461010a57600080fd5b3661006057005b600080fd5b34801561007157600080fd5b50610085610080366004610343565b610114565b6040519081526020015b60405180910390f35b3480156100a457600080fd5b5061008560005481565b3480156100ba57600080fd5b5061008560025481565b3480156100d057600080fd5b5061008560015481565b3480156100e657600080fd5b506100fa6100f5366004610343565b610167565b604051901515815260200161008f565b6101126101bd565b005b6040516bffffffffffffffffffffffff19606083901b1660208201524460348201524260548201524340607482015260009060940160408051601f19818403018152919052805160209091012092915050565b600080606461017584610114565b61017f9190610373565b90506101b36040518060400160405280601081526020016f039b2b2b210373ab6b132b91034b99d160851b815250826102d9565b6002541092915050565b60006101c833610167565b90508015610280576000336101de3460026103ab565b604051600081818185875af1925050503d806000811461021a576040519150601f19603f3d011682016040523d82523d6000602084013e61021f565b606091505b50509050806102665760405162461bcd60e51b815260206004820152600f60248201526e151c985b9cd9995c8819985a5b1959608a1b604482015260640160405180910390fd5b600080549080610275836103ca565b919050555050610296565b60018054906000610290836103ca565b91905055505b604080513381523460208201528215158183015290517ff8e99859e696debf4ef1752d671f759f7f63a1116efe995d789edfb3849c35499181900360600190a150565b61031e82826040516024016102ef9291906103e5565b60408051601f198184030181529190526020810180516001600160e01b03166309710a9d60e41b179052610322565b5050565b80516a636f6e736f6c652e6c6f67602083016000808483855afa5050505050565b60006020828403121561035557600080fd5b81356001600160a01b038116811461036c57600080fd5b9392505050565b60008261039057634e487b7160e01b600052601260045260246000fd5b500690565b634e487b7160e01b600052601160045260246000fd5b60008160001904831182151516156103c5576103c5610395565b500290565b60006000198214156103de576103de610395565b5060010190565b604081526000835180604084015260005b8181101561041357602081870181015160608684010152016103f6565b81811115610425576000606083860101525b50602083019390935250601f91909101601f19160160600191905056fea2646970667358221220df77782425188a5d9e0694eee6afc5f227c5c41c7f95fa8a01791aadf143b7c564736f6c63430008090033",
  "devdoc": {
    "kind": "dev",
    "methods": {},
    "version": 1
  },
  "userdoc": {
    "kind": "user",
    "methods": {},
    "version": 1
  },
  "storageLayout": {
    "storage": [
      {
        "astId": 5,
        "contract": "contracts/Game.sol:Game",
        "label": "totalGamesPlayerWon",
        "offset": 0,
        "slot": "0",
        "type": "t_uint256"
      },
      {
        "astId": 8,
        "contract": "contracts/Game.sol:Game",
        "label": "totalGamesPlayerLost",
        "offset": 0,
        "slot": "1",
        "type": "t_uint256"
      },
      {
        "astId": 10,
        "contract": "contracts/Game.sol:Game",
        "label": "wonRate",
        "offset": 0,
        "slot": "2",
        "type": "t_uint256"
      }
    ],
    "types": {
      "t_uint256": {
        "encoding": "inplace",
        "label": "uint256",
        "numberOfBytes": "32"
      }
    }
  }
}